{
  "contractName": "Players",
  "abi": [
    {
      "constant": true,
      "inputs": [
        {
          "name": "",
          "type": "uint256"
        }
      ],
      "name": "playerAccounts",
      "outputs": [
        {
          "name": "",
          "type": "address"
        }
      ],
      "payable": false,
      "stateMutability": "view",
      "type": "function",
      "signature": "0x9d214bcf"
    },
    {
      "anonymous": false,
      "inputs": [
        {
          "indexed": false,
          "name": "_username",
          "type": "string"
        },
        {
          "indexed": false,
          "name": "_address",
          "type": "address"
        }
      ],
      "name": "playerCreated",
      "type": "event",
      "signature": "0x80c5ac2d493a75b4aa3a7daf23df121e9b498fbe5d1b002253b492868456490f"
    },
    {
      "anonymous": false,
      "inputs": [
        {
          "indexed": false,
          "name": "_username",
          "type": "string"
        },
        {
          "indexed": false,
          "name": "_address",
          "type": "address"
        }
      ],
      "name": "playerDeleted",
      "type": "event",
      "signature": "0xfc8bee5dd48066e1c0875fa94101682b7b2047bd84395f19a4e07847b4236cac"
    },
    {
      "anonymous": false,
      "inputs": [
        {
          "indexed": false,
          "name": "_username",
          "type": "string"
        },
        {
          "indexed": false,
          "name": "_totalWagered",
          "type": "uint256"
        },
        {
          "indexed": false,
          "name": "_totalWon",
          "type": "uint256"
        },
        {
          "indexed": false,
          "name": "_totalPlayed",
          "type": "uint256"
        },
        {
          "indexed": false,
          "name": "_eloRating",
          "type": "uint256"
        }
      ],
      "name": "playerUpdated",
      "type": "event",
      "signature": "0x73e8a609bf3c3cc3efd35793e7dfc1c6bdb0a27df03cc1781240b6d949b3286b"
    },
    {
      "constant": false,
      "inputs": [
        {
          "name": "_username",
          "type": "string"
        },
        {
          "name": "_address",
          "type": "address"
        }
      ],
      "name": "createPlayer",
      "outputs": [],
      "payable": false,
      "stateMutability": "nonpayable",
      "type": "function",
      "signature": "0xa8590321"
    },
    {
      "constant": true,
      "inputs": [
        {
          "name": "_address",
          "type": "address"
        }
      ],
      "name": "getPlayerByAddress",
      "outputs": [
        {
          "name": "",
          "type": "string"
        },
        {
          "name": "",
          "type": "uint256"
        },
        {
          "name": "",
          "type": "uint256"
        },
        {
          "name": "",
          "type": "uint256"
        },
        {
          "name": "",
          "type": "uint256"
        }
      ],
      "payable": false,
      "stateMutability": "view",
      "type": "function",
      "signature": "0xd4d51269"
    },
    {
      "constant": false,
      "inputs": [
        {
          "name": "_address",
          "type": "address"
        }
      ],
      "name": "deletePlayer",
      "outputs": [],
      "payable": false,
      "stateMutability": "nonpayable",
      "type": "function",
      "signature": "0x12243b67"
    },
    {
      "constant": false,
      "inputs": [
        {
          "name": "_address",
          "type": "address"
        },
        {
          "name": "_amountWagered",
          "type": "uint256"
        },
        {
          "name": "_amountWon",
          "type": "uint256"
        },
        {
          "name": "_won",
          "type": "bool"
        },
        {
          "name": "_eloChange",
          "type": "uint256"
        }
      ],
      "name": "updatePlayer",
      "outputs": [],
      "payable": false,
      "stateMutability": "nonpayable",
      "type": "function",
      "signature": "0x78320656"
    },
    {
      "constant": false,
      "inputs": [
        {
          "name": "_address",
          "type": "address"
        },
        {
          "name": "_eloRating",
          "type": "uint256"
        }
      ],
      "name": "setEloRating",
      "outputs": [],
      "payable": false,
      "stateMutability": "nonpayable",
      "type": "function",
      "signature": "0x2790294c"
    },
    {
      "constant": false,
      "inputs": [
        {
          "name": "_address",
          "type": "address"
        }
      ],
      "name": "resetPlayerStats",
      "outputs": [],
      "payable": false,
      "stateMutability": "nonpayable",
      "type": "function",
      "signature": "0x16c4fb5b"
    }
  ],
  "bytecode": "0x608060405234801561001057600080fd5b5061165b806100206000396000f3fe608060405260043610610083576000357c0100000000000000000000000000000000000000000000000000000000900463ffffffff16806312243b671461008857806316c4fb5b146100d95780632790294c1461012a57806378320656146101855780639d214bcf14610200578063a85903211461027b578063d4d5126914610363575b600080fd5b34801561009457600080fd5b506100d7600480360360208110156100ab57600080fd5b81019080803573ffffffffffffffffffffffffffffffffffffffff169060200190929190505050610449565b005b3480156100e557600080fd5b50610128600480360360208110156100fc57600080fd5b81019080803573ffffffffffffffffffffffffffffffffffffffff1690602001909291905050506107ae565b005b34801561013657600080fd5b506101836004803603604081101561014d57600080fd5b81019080803573ffffffffffffffffffffffffffffffffffffffff169060200190929190803590602001909291905050506108d7565b005b34801561019157600080fd5b506101fe600480360360a08110156101a857600080fd5b81019080803573ffffffffffffffffffffffffffffffffffffffff169060200190929190803590602001909291908035906020019092919080351515906020019092919080359060200190929190505050610972565b005b34801561020c57600080fd5b506102396004803603602081101561022357600080fd5b8101908080359060200190929190505050610ef1565b604051808273ffffffffffffffffffffffffffffffffffffffff1673ffffffffffffffffffffffffffffffffffffffff16815260200191505060405180910390f35b34801561028757600080fd5b506103616004803603604081101561029e57600080fd5b81019080803590602001906401000000008111156102bb57600080fd5b8201836020820111156102cd57600080fd5b803590602001918460018302840111640100000000831117156102ef57600080fd5b91908080601f016020809104026020016040519081016040528093929190818152602001838380828437600081840152601f19601f820116905080830192505050505050509192919290803573ffffffffffffffffffffffffffffffffffffffff169060200190929190505050610f2f565b005b34801561036f57600080fd5b506103b26004803603602081101561038657600080fd5b81019080803573ffffffffffffffffffffffffffffffffffffffff169060200190929190505050611180565b6040518080602001868152602001858152602001848152602001838152602001828103825287818151815260200191508051906020019080838360005b8381101561040a5780820151818401526020810190506103ef565b50505050905090810190601f1680156104375780820380516001836020036101000a031916815260200191505b50965050505050505060405180910390f35b60008060008373ffffffffffffffffffffffffffffffffffffffff1673ffffffffffffffffffffffffffffffffffffffff168152602001908152602001600020600401541415151561049a57600080fd5b60606000808373ffffffffffffffffffffffffffffffffffffffff1673ffffffffffffffffffffffffffffffffffffffff1681526020019081526020016000206000018054600181600116156101000203166002900480601f0160208091040260200160405190810160405280929190818152602001828054600181600116156101000203166002900480156105715780601f1061054657610100808354040283529160200191610571565b820191906000526020600020905b81548152906001019060200180831161055457829003601f168201915b505050505090506000808373ffffffffffffffffffffffffffffffffffffffff1673ffffffffffffffffffffffffffffffffffffffff168152602001908152602001600020600080820160006105c79190611516565b6001820160009055600282016000905560038201600090556004820160009055505060008090505b6001805490508110156106d9578273ffffffffffffffffffffffffffffffffffffffff1660018281548110151561062257fe5b9060005260206000200160009054906101000a900473ffffffffffffffffffffffffffffffffffffffff1673ffffffffffffffffffffffffffffffffffffffff1614156106cc5760018181548110151561067857fe5b9060005260206000200160006101000a81549073ffffffffffffffffffffffffffffffffffffffff02191690556106bd6001808054905061138090919063ffffffff16565b6001816106ca919061155e565b505b80806001019150506105ef565b507ffc8bee5dd48066e1c0875fa94101682b7b2047bd84395f19a4e07847b4236cac818360405180806020018373ffffffffffffffffffffffffffffffffffffffff1673ffffffffffffffffffffffffffffffffffffffff168152602001828103825284818151815260200191508051906020019080838360005b8381101561076f578082015181840152602081019050610754565b50505050905090810190601f16801561079c5780820380516001836020036101000a031916815260200191505b50935050505060405180910390a15050565b60008060008373ffffffffffffffffffffffffffffffffffffffff1673ffffffffffffffffffffffffffffffffffffffff16815260200190815260200160002060040154141515156107ff57600080fd5b60008060008373ffffffffffffffffffffffffffffffffffffffff1673ffffffffffffffffffffffffffffffffffffffff1681526020019081526020016000206001018190555060008060008373ffffffffffffffffffffffffffffffffffffffff1673ffffffffffffffffffffffffffffffffffffffff1681526020019081526020016000206002018190555060008060008373ffffffffffffffffffffffffffffffffffffffff1673ffffffffffffffffffffffffffffffffffffffff1681526020019081526020016000206003018190555050565b60008060008473ffffffffffffffffffffffffffffffffffffffff1673ffffffffffffffffffffffffffffffffffffffff168152602001908152602001600020600401541415151561092857600080fd5b806000808473ffffffffffffffffffffffffffffffffffffffff1673ffffffffffffffffffffffffffffffffffffffff168152602001908152602001600020600401819055505050565b60008060008773ffffffffffffffffffffffffffffffffffffffff1673ffffffffffffffffffffffffffffffffffffffff16815260200190815260200160002060040154141515156109c357600080fd5b610a17846000808873ffffffffffffffffffffffffffffffffffffffff1673ffffffffffffffffffffffffffffffffffffffff168152602001908152602001600020600101546113ca90919063ffffffff16565b6000808773ffffffffffffffffffffffffffffffffffffffff1673ffffffffffffffffffffffffffffffffffffffff16815260200190815260200160002060010181905550610ab160016000808873ffffffffffffffffffffffffffffffffffffffff1673ffffffffffffffffffffffffffffffffffffffff168152602001908152602001600020600301546113ca90919063ffffffff16565b6000808773ffffffffffffffffffffffffffffffffffffffff1673ffffffffffffffffffffffffffffffffffffffff168152602001908152602001600020600301819055508115610c3357610b50836000808873ffffffffffffffffffffffffffffffffffffffff1673ffffffffffffffffffffffffffffffffffffffff168152602001908152602001600020600201546113ca90919063ffffffff16565b6000808773ffffffffffffffffffffffffffffffffffffffff1673ffffffffffffffffffffffffffffffffffffffff16815260200190815260200160002060020181905550610be9816000808873ffffffffffffffffffffffffffffffffffffffff1673ffffffffffffffffffffffffffffffffffffffff168152602001908152602001600020600401546113ca90919063ffffffff16565b6000808773ffffffffffffffffffffffffffffffffffffffff1673ffffffffffffffffffffffffffffffffffffffff16815260200190815260200160002060040181905550610ccd565b610c87816000808873ffffffffffffffffffffffffffffffffffffffff1673ffffffffffffffffffffffffffffffffffffffff1681526020019081526020016000206004015461138090919063ffffffff16565b6000808773ffffffffffffffffffffffffffffffffffffffff1673ffffffffffffffffffffffffffffffffffffffff168152602001908152602001600020600401819055505b7f73e8a609bf3c3cc3efd35793e7dfc1c6bdb0a27df03cc1781240b6d949b3286b6000808773ffffffffffffffffffffffffffffffffffffffff1673ffffffffffffffffffffffffffffffffffffffff1681526020019081526020016000206000016000808873ffffffffffffffffffffffffffffffffffffffff1673ffffffffffffffffffffffffffffffffffffffff168152602001908152602001600020600101546000808973ffffffffffffffffffffffffffffffffffffffff1673ffffffffffffffffffffffffffffffffffffffff168152602001908152602001600020600201546000808a73ffffffffffffffffffffffffffffffffffffffff1673ffffffffffffffffffffffffffffffffffffffff168152602001908152602001600020600301546000808b73ffffffffffffffffffffffffffffffffffffffff1673ffffffffffffffffffffffffffffffffffffffff168152602001908152602001600020600401546040518080602001868152602001858152602001848152602001838152602001828103825287818154600181600116156101000203166002900481526020019150805460018160011615610100020316600290048015610ed85780601f10610ead57610100808354040283529160200191610ed8565b820191906000526020600020905b815481529060010190602001808311610ebb57829003601f168201915b5050965050505050505060405180910390a15050505050565b600181815481101515610f0057fe5b906000526020600020016000915054906101000a900473ffffffffffffffffffffffffffffffffffffffff1681565b60008060008373ffffffffffffffffffffffffffffffffffffffff1673ffffffffffffffffffffffffffffffffffffffff168152602001908152602001600020600001805460018160011615610100020316600290049050141515610f9357600080fd5b60a0604051908101604052808381526020016000815260200160008152602001600081526020016106408152506000808373ffffffffffffffffffffffffffffffffffffffff1673ffffffffffffffffffffffffffffffffffffffff168152602001908152602001600020600082015181600001908051906020019061101a92919061158a565b506020820151816001015560408201518160020155606082015181600301556080820151816004015590505060018190806001815401808255809150509060018203906000526020600020016000909192909190916101000a81548173ffffffffffffffffffffffffffffffffffffffff021916908373ffffffffffffffffffffffffffffffffffffffff160217905550507f80c5ac2d493a75b4aa3a7daf23df121e9b498fbe5d1b002253b492868456490f828260405180806020018373ffffffffffffffffffffffffffffffffffffffff1673ffffffffffffffffffffffffffffffffffffffff168152602001828103825284818151815260200191508051906020019080838360005b83811015611141578082015181840152602081019050611126565b50505050905090810190601f16801561116e5780820380516001836020036101000a031916815260200191505b50935050505060405180910390a15050565b60606000806000806000808773ffffffffffffffffffffffffffffffffffffffff1673ffffffffffffffffffffffffffffffffffffffff1681526020019081526020016000206000016000808873ffffffffffffffffffffffffffffffffffffffff1673ffffffffffffffffffffffffffffffffffffffff168152602001908152602001600020600101546000808973ffffffffffffffffffffffffffffffffffffffff1673ffffffffffffffffffffffffffffffffffffffff168152602001908152602001600020600201546000808a73ffffffffffffffffffffffffffffffffffffffff1673ffffffffffffffffffffffffffffffffffffffff168152602001908152602001600020600301546000808b73ffffffffffffffffffffffffffffffffffffffff1673ffffffffffffffffffffffffffffffffffffffff16815260200190815260200160002060040154848054600181600116156101000203166002900480601f0160208091040260200160405190810160405280929190818152602001828054600181600116156101000203166002900480156113665780601f1061133b57610100808354040283529160200191611366565b820191906000526020600020905b81548152906001019060200180831161134957829003601f168201915b505050505094509450945094509450945091939590929450565b60006113c283836040805190810160405280601e81526020017f536166654d6174683a207375627472616374696f6e206f766572666c6f770000815250611454565b905092915050565b600080828401905083811015151561144a576040517f08c379a000000000000000000000000000000000000000000000000000000000815260040180806020018281038252601b8152602001807f536166654d6174683a206164646974696f6e206f766572666c6f77000000000081525060200191505060405180910390fd5b8091505092915050565b60008383111582901515611503576040517f08c379a00000000000000000000000000000000000000000000000000000000081526004018080602001828103825283818151815260200191508051906020019080838360005b838110156114c85780820151818401526020810190506114ad565b50505050905090810190601f1680156114f55780820380516001836020036101000a031916815260200191505b509250505060405180910390fd5b5060008385039050809150509392505050565b50805460018160011615610100020316600290046000825580601f1061153c575061155b565b601f01602090049060005260206000209081019061155a919061160a565b5b50565b81548183558181111561158557818360005260206000209182019101611584919061160a565b5b505050565b828054600181600116156101000203166002900490600052602060002090601f016020900481019282601f106115cb57805160ff19168380011785556115f9565b828001600101855582156115f9579182015b828111156115f85782518255916020019190600101906115dd565b5b509050611606919061160a565b5090565b61162c91905b80821115611628576000816000905550600101611610565b5090565b9056fea165627a7a72305820013f0456a7727bec8695e776601fc40e9db8f94108436f747bdf31a0e7563cf60029",
  "source": "//TO DO:\n//Choose visibility and permissions for EVERYTHING\n\npragma solidity ^0.5.0;\nimport \"./SafeMath.sol\";\n\ncontract Players {\n    \n    //SafeMath functions for uint256 types\n    using SafeMath for uint256;\n    \n    //Player object\n    struct Player {\n        string username;\n        uint256 totalWagered;\n        uint256 totalWon;\n        uint256 totalPlayed;\n        uint256 eloRating;\n    }\n    \n    //Events\n    event playerCreated(string _username, address _address);\n    event playerDeleted(string _username, address _address);\n    event playerUpdated(string _username, uint256 _totalWagered, uint256 _totalWon, uint256 _totalPlayed, uint256 _eloRating);\n\n    //Maps player addresses to their object\n    mapping(address => Player) players;\n    //Array of player addresses\n    address[] public playerAccounts;\n    \n    //Creates a new player with fresh stats\n    function createPlayer(string memory _username, address _address) public {\n        //Prevents duplicate accounts being created\n        require(bytes (players[_address].username).length == 0);\n        //Adds new player to mapping\n        players[_address] = Player(_username, 0, 0, 0, 1600);\n        //Adds new player's address to playerAccounts array\n        playerAccounts.push(_address);\n        emit playerCreated(_username, _address);\n    }\n    \n    //Returns player object elements from player address\n    function getPlayerByAddress(address _address) public view returns (string memory, uint256, uint256, uint256, uint256) {\n        return(players[_address].username, players[_address].totalWagered, players[_address].totalWon, players[_address].totalPlayed, players[_address].eloRating);\n    }\n    \n    //Deletes player from mapping and address array from player address\n    function deletePlayer(address _address) public {\n        require(players[_address].eloRating != 0);\n        string memory deletingUsername = players[_address].username;\n        delete players[_address];\n        for (uint256 i = 0; i < playerAccounts.length; i++) {\n            if (playerAccounts[i] == _address) {\n                delete playerAccounts[i];\n                playerAccounts.length = playerAccounts.length.sub(1);\n            }\n        }\n        emit playerDeleted(deletingUsername, _address);\n    }\n    \n    //Updates player's elements depending on outcome of game\n    function updatePlayer(address _address, uint256 _amountWagered, uint256 _amountWon, bool _won, uint256 _eloChange) public {\n        require(players[_address].eloRating != 0);\n        players[_address].totalWagered = players[_address].totalWagered.add(_amountWagered);\n        players[_address].totalPlayed = players[_address].totalPlayed.add(1);\n        if (_won) {\n            players[_address].totalWon = players[_address].totalWon.add(_amountWon);\n            players[_address].eloRating = players[_address].eloRating.add(_eloChange);\n        } else {\n            players[_address].eloRating = players[_address].eloRating.sub(_eloChange);\n        }\n        emit playerUpdated(players[_address].username, players[_address].totalWagered, players[_address].totalWon, players[_address].totalPlayed, players[_address].eloRating);\n    }\n\n    //Manually set an elo rating for a player\n    function setEloRating(address _address, uint256 _eloRating) public {\n        require(players[_address].eloRating != 0);\n        players[_address].eloRating = _eloRating;\n    }\n\n    //Resets a players statistics\n    function resetPlayerStats(address _address) public {\n        require(players[_address].eloRating != 0);\n        players[_address].totalWagered = 0;\n        players[_address].totalWon = 0;\n        players[_address].totalPlayed = 0;\n    }\n    \n}",
  "sourcePath": "/Users/jordanrowley/Desktop/ /ContractTesting/contracts/Players.sol",
  "compiler": {
    "name": "solc",
    "version": "0.5.0+commit.1d4f565a.Emscripten.clang"
  },
  "schemaVersion": "3.0.1",
  "updatedAt": "2020-10-22T23:41:57.712Z",
  "devdoc": {
    "methods": {}
  },
  "userdoc": {
    "methods": {}
  }
}