{
  "contractName": "Teams",
  "abi": [
    {
      "constant": false,
      "inputs": [
        {
          "name": "_address",
          "type": "address"
        }
      ],
      "name": "deletePlayer",
      "outputs": [],
      "payable": false,
      "stateMutability": "nonpayable",
      "type": "function",
      "signature": "0x12243b67"
    },
    {
      "constant": false,
      "inputs": [
        {
          "name": "_address",
          "type": "address"
        }
      ],
      "name": "resetPlayerStats",
      "outputs": [],
      "payable": false,
      "stateMutability": "nonpayable",
      "type": "function",
      "signature": "0x16c4fb5b"
    },
    {
      "constant": false,
      "inputs": [
        {
          "name": "_address",
          "type": "address"
        },
        {
          "name": "_eloRating",
          "type": "uint256"
        }
      ],
      "name": "setEloRating",
      "outputs": [],
      "payable": false,
      "stateMutability": "nonpayable",
      "type": "function",
      "signature": "0x2790294c"
    },
    {
      "constant": true,
      "inputs": [
        {
          "name": "",
          "type": "uint256"
        }
      ],
      "name": "teamNames",
      "outputs": [
        {
          "name": "",
          "type": "string"
        }
      ],
      "payable": false,
      "stateMutability": "view",
      "type": "function",
      "signature": "0x5ae725f7"
    },
    {
      "constant": false,
      "inputs": [
        {
          "name": "_address",
          "type": "address"
        },
        {
          "name": "_amountWagered",
          "type": "uint256"
        },
        {
          "name": "_amountWon",
          "type": "uint256"
        },
        {
          "name": "_won",
          "type": "bool"
        },
        {
          "name": "_eloChange",
          "type": "uint256"
        }
      ],
      "name": "updatePlayer",
      "outputs": [],
      "payable": false,
      "stateMutability": "nonpayable",
      "type": "function",
      "signature": "0x78320656"
    },
    {
      "constant": true,
      "inputs": [
        {
          "name": "",
          "type": "uint256"
        }
      ],
      "name": "playerAccounts",
      "outputs": [
        {
          "name": "",
          "type": "address"
        }
      ],
      "payable": false,
      "stateMutability": "view",
      "type": "function",
      "signature": "0x9d214bcf"
    },
    {
      "constant": false,
      "inputs": [
        {
          "name": "_username",
          "type": "string"
        },
        {
          "name": "_address",
          "type": "address"
        }
      ],
      "name": "createPlayer",
      "outputs": [],
      "payable": false,
      "stateMutability": "nonpayable",
      "type": "function",
      "signature": "0xa8590321"
    },
    {
      "constant": true,
      "inputs": [
        {
          "name": "_address",
          "type": "address"
        }
      ],
      "name": "getPlayerByAddress",
      "outputs": [
        {
          "name": "",
          "type": "string"
        },
        {
          "name": "",
          "type": "uint256"
        },
        {
          "name": "",
          "type": "uint256"
        },
        {
          "name": "",
          "type": "uint256"
        },
        {
          "name": "",
          "type": "uint256"
        }
      ],
      "payable": false,
      "stateMutability": "view",
      "type": "function",
      "signature": "0xd4d51269"
    },
    {
      "anonymous": false,
      "inputs": [
        {
          "indexed": false,
          "name": "_teamName",
          "type": "string"
        },
        {
          "indexed": false,
          "name": "_teamPlayers",
          "type": "address[]"
        },
        {
          "indexed": false,
          "name": "_id",
          "type": "uint256"
        },
        {
          "indexed": false,
          "name": "_eloRating",
          "type": "uint256"
        }
      ],
      "name": "teamCreated",
      "type": "event",
      "signature": "0xf40914f55ad0708a080b700ef4d7e24b6571a7821a0faf4eaa37f7e2687aadc1"
    },
    {
      "anonymous": false,
      "inputs": [
        {
          "indexed": false,
          "name": "_teamName",
          "type": "string"
        },
        {
          "indexed": false,
          "name": "_id",
          "type": "uint256"
        }
      ],
      "name": "teamDeleted",
      "type": "event",
      "signature": "0x9343002b8b2fcab5cab87a58c6071a7186b3f3cf663c10b1f024c7c3cc52c535"
    },
    {
      "anonymous": false,
      "inputs": [
        {
          "indexed": false,
          "name": "_teamName",
          "type": "string"
        },
        {
          "indexed": false,
          "name": "_id",
          "type": "uint256"
        },
        {
          "indexed": false,
          "name": "_totalWagered",
          "type": "uint256"
        },
        {
          "indexed": false,
          "name": "_totalWon",
          "type": "uint256"
        },
        {
          "indexed": false,
          "name": "_totalPlayed",
          "type": "uint256"
        },
        {
          "indexed": false,
          "name": "_eloRating",
          "type": "uint256"
        }
      ],
      "name": "teamUpdated",
      "type": "event",
      "signature": "0x0ffde81b4ee0cadc8d310d844bdbb4ebb598abe8a1bcce401931ed558ddfec49"
    },
    {
      "anonymous": false,
      "inputs": [
        {
          "indexed": false,
          "name": "_teamName",
          "type": "string"
        },
        {
          "indexed": false,
          "name": "_id",
          "type": "uint256"
        },
        {
          "indexed": false,
          "name": "_totalWagered",
          "type": "uint256"
        },
        {
          "indexed": false,
          "name": "_totalWon",
          "type": "uint256"
        },
        {
          "indexed": false,
          "name": "_totalPlayed",
          "type": "uint256"
        },
        {
          "indexed": false,
          "name": "_eloRating",
          "type": "uint256"
        }
      ],
      "name": "teamStatsReset",
      "type": "event",
      "signature": "0xfd3bb5f4abc59b9e8f3becc476d5fcb81deb645956c4f9a7b77524e74876ad42"
    },
    {
      "anonymous": false,
      "inputs": [
        {
          "indexed": false,
          "name": "_username",
          "type": "string"
        },
        {
          "indexed": false,
          "name": "_address",
          "type": "address"
        }
      ],
      "name": "playerCreated",
      "type": "event",
      "signature": "0x80c5ac2d493a75b4aa3a7daf23df121e9b498fbe5d1b002253b492868456490f"
    },
    {
      "anonymous": false,
      "inputs": [
        {
          "indexed": false,
          "name": "_username",
          "type": "string"
        },
        {
          "indexed": false,
          "name": "_address",
          "type": "address"
        }
      ],
      "name": "playerDeleted",
      "type": "event",
      "signature": "0xfc8bee5dd48066e1c0875fa94101682b7b2047bd84395f19a4e07847b4236cac"
    },
    {
      "anonymous": false,
      "inputs": [
        {
          "indexed": false,
          "name": "_username",
          "type": "string"
        },
        {
          "indexed": false,
          "name": "_totalWagered",
          "type": "uint256"
        },
        {
          "indexed": false,
          "name": "_totalWon",
          "type": "uint256"
        },
        {
          "indexed": false,
          "name": "_totalPlayed",
          "type": "uint256"
        },
        {
          "indexed": false,
          "name": "_eloRating",
          "type": "uint256"
        }
      ],
      "name": "playerUpdated",
      "type": "event",
      "signature": "0x73e8a609bf3c3cc3efd35793e7dfc1c6bdb0a27df03cc1781240b6d949b3286b"
    },
    {
      "constant": false,
      "inputs": [
        {
          "name": "_teamName",
          "type": "string"
        },
        {
          "name": "_teamPlayers",
          "type": "address[]"
        }
      ],
      "name": "createTeam",
      "outputs": [],
      "payable": false,
      "stateMutability": "nonpayable",
      "type": "function",
      "signature": "0x81bb6f0a"
    },
    {
      "constant": true,
      "inputs": [
        {
          "name": "_id",
          "type": "uint256"
        }
      ],
      "name": "getTeamById",
      "outputs": [
        {
          "name": "",
          "type": "string"
        },
        {
          "name": "",
          "type": "address[]"
        },
        {
          "name": "",
          "type": "uint256"
        },
        {
          "name": "",
          "type": "uint256"
        },
        {
          "name": "",
          "type": "uint256"
        },
        {
          "name": "",
          "type": "uint256"
        },
        {
          "name": "",
          "type": "uint256"
        }
      ],
      "payable": false,
      "stateMutability": "view",
      "type": "function",
      "signature": "0xe1141ab3"
    },
    {
      "constant": false,
      "inputs": [
        {
          "name": "_id",
          "type": "uint256"
        }
      ],
      "name": "deleteTeam",
      "outputs": [],
      "payable": false,
      "stateMutability": "nonpayable",
      "type": "function",
      "signature": "0xea842e65"
    },
    {
      "constant": false,
      "inputs": [
        {
          "name": "_id",
          "type": "uint256"
        },
        {
          "name": "_amountWagered",
          "type": "uint256"
        },
        {
          "name": "_amountWon",
          "type": "uint256"
        },
        {
          "name": "_won",
          "type": "bool"
        },
        {
          "name": "_eloChange",
          "type": "uint256"
        }
      ],
      "name": "updateTeam",
      "outputs": [],
      "payable": false,
      "stateMutability": "nonpayable",
      "type": "function",
      "signature": "0xac01b09a"
    },
    {
      "constant": false,
      "inputs": [
        {
          "name": "_id",
          "type": "uint256"
        }
      ],
      "name": "resetTeamStats",
      "outputs": [],
      "payable": false,
      "stateMutability": "nonpayable",
      "type": "function",
      "signature": "0xeed1f02b"
    }
  ],
  "bytecode": "0x608060405234801561001057600080fd5b50612c4c806100206000396000f3fe6080604052600436106100c5576000357c0100000000000000000000000000000000000000000000000000000000900463ffffffff16806312243b67146100ca57806316c4fb5b1461011b5780632790294c1461016c5780635ae725f7146101c7578063783206561461027b57806381bb6f0a146102f65780639d214bcf14610452578063a8590321146104cd578063ac01b09a146105b5578063d4d512691461061a578063e1141ab314610700578063ea842e651461081f578063eed1f02b1461085a575b600080fd5b3480156100d657600080fd5b50610119600480360360208110156100ed57600080fd5b81019080803573ffffffffffffffffffffffffffffffffffffffff169060200190929190505050610895565b005b34801561012757600080fd5b5061016a6004803603602081101561013e57600080fd5b81019080803573ffffffffffffffffffffffffffffffffffffffff169060200190929190505050610bfa565b005b34801561017857600080fd5b506101c56004803603604081101561018f57600080fd5b81019080803573ffffffffffffffffffffffffffffffffffffffff16906020019092919080359060200190929190505050610d23565b005b3480156101d357600080fd5b50610200600480360360208110156101ea57600080fd5b8101908080359060200190929190505050610dbe565b6040518080602001828103825283818151815260200191508051906020019080838360005b83811015610240578082015181840152602081019050610225565b50505050905090810190601f16801561026d5780820380516001836020036101000a031916815260200191505b509250505060405180910390f35b34801561028757600080fd5b506102f4600480360360a081101561029e57600080fd5b81019080803573ffffffffffffffffffffffffffffffffffffffff169060200190929190803590602001909291908035906020019092919080351515906020019092919080359060200190929190505050610e79565b005b34801561030257600080fd5b506104506004803603604081101561031957600080fd5b810190808035906020019064010000000081111561033657600080fd5b82018360208201111561034857600080fd5b8035906020019184600183028401116401000000008311171561036a57600080fd5b91908080601f016020809104026020016040519081016040528093929190818152602001838380828437600081840152601f19601f820116905080830192505050505050509192919290803590602001906401000000008111156103cd57600080fd5b8201836020820111156103df57600080fd5b8035906020019184602083028401116401000000008311171561040157600080fd5b919080806020026020016040519081016040528093929190818152602001838360200280828437600081840152601f19601f8201169050808301925050505050505091929192905050506113f8565b005b34801561045e57600080fd5b5061048b6004803603602081101561047557600080fd5b81019080803590602001909291905050506117e3565b604051808273ffffffffffffffffffffffffffffffffffffffff1673ffffffffffffffffffffffffffffffffffffffff16815260200191505060405180910390f35b3480156104d957600080fd5b506105b3600480360360408110156104f057600080fd5b810190808035906020019064010000000081111561050d57600080fd5b82018360208201111561051f57600080fd5b8035906020019184600183028401116401000000008311171561054157600080fd5b91908080601f016020809104026020016040519081016040528093929190818152602001838380828437600081840152601f19601f820116905080830192505050505050509192919290803573ffffffffffffffffffffffffffffffffffffffff169060200190929190505050611821565b005b3480156105c157600080fd5b50610618600480360360a08110156105d857600080fd5b8101908080359060200190929190803590602001909291908035906020019092919080351515906020019092919080359060200190929190505050611a72565b005b34801561062657600080fd5b506106696004803603602081101561063d57600080fd5b81019080803573ffffffffffffffffffffffffffffffffffffffff169060200190929190505050611d8c565b6040518080602001868152602001858152602001848152602001838152602001828103825287818151815260200191508051906020019080838360005b838110156106c15780820151818401526020810190506106a6565b50505050905090810190601f1680156106ee5780820380516001836020036101000a031916815260200191505b50965050505050505060405180910390f35b34801561070c57600080fd5b506107396004803603602081101561072357600080fd5b8101908080359060200190929190505050611f8c565b60405180806020018060200188815260200187815260200186815260200185815260200184815260200183810383528a818151815260200191508051906020019080838360005b8381101561079b578082015181840152602081019050610780565b50505050905090810190601f1680156107c85780820380516001836020036101000a031916815260200191505b50838103825289818151815260200191508051906020019060200280838360005b838110156108045780820151818401526020810190506107e9565b50505050905001995050505050505050505060405180910390f35b34801561082b57600080fd5b506108586004803603602081101561084257600080fd5b8101908080359060200190929190505050612173565b005b34801561086657600080fd5b506108936004803603602081101561087d57600080fd5b81019080803590602001909291905050506124cc565b005b60008060008373ffffffffffffffffffffffffffffffffffffffff1673ffffffffffffffffffffffffffffffffffffffff16815260200190815260200160002060040154141515156108e657600080fd5b60606000808373ffffffffffffffffffffffffffffffffffffffff1673ffffffffffffffffffffffffffffffffffffffff1681526020019081526020016000206000018054600181600116156101000203166002900480601f0160208091040260200160405190810160405280929190818152602001828054600181600116156101000203166002900480156109bd5780601f10610992576101008083540402835291602001916109bd565b820191906000526020600020905b8154815290600101906020018083116109a057829003601f168201915b505050505090506000808373ffffffffffffffffffffffffffffffffffffffff1673ffffffffffffffffffffffffffffffffffffffff16815260200190815260200160002060008082016000610a139190612941565b6001820160009055600282016000905560038201600090556004820160009055505060008090505b600180549050811015610b25578273ffffffffffffffffffffffffffffffffffffffff16600182815481101515610a6e57fe5b9060005260206000200160009054906101000a900473ffffffffffffffffffffffffffffffffffffffff1673ffffffffffffffffffffffffffffffffffffffff161415610b1857600181815481101515610ac457fe5b9060005260206000200160006101000a81549073ffffffffffffffffffffffffffffffffffffffff0219169055610b096001808054905061269790919063ffffffff16565b600181610b169190612989565b505b8080600101915050610a3b565b507ffc8bee5dd48066e1c0875fa94101682b7b2047bd84395f19a4e07847b4236cac818360405180806020018373ffffffffffffffffffffffffffffffffffffffff1673ffffffffffffffffffffffffffffffffffffffff168152602001828103825284818151815260200191508051906020019080838360005b83811015610bbb578082015181840152602081019050610ba0565b50505050905090810190601f168015610be85780820380516001836020036101000a031916815260200191505b50935050505060405180910390a15050565b60008060008373ffffffffffffffffffffffffffffffffffffffff1673ffffffffffffffffffffffffffffffffffffffff1681526020019081526020016000206004015414151515610c4b57600080fd5b60008060008373ffffffffffffffffffffffffffffffffffffffff1673ffffffffffffffffffffffffffffffffffffffff1681526020019081526020016000206001018190555060008060008373ffffffffffffffffffffffffffffffffffffffff1673ffffffffffffffffffffffffffffffffffffffff1681526020019081526020016000206002018190555060008060008373ffffffffffffffffffffffffffffffffffffffff1673ffffffffffffffffffffffffffffffffffffffff1681526020019081526020016000206003018190555050565b60008060008473ffffffffffffffffffffffffffffffffffffffff1673ffffffffffffffffffffffffffffffffffffffff1681526020019081526020016000206004015414151515610d7457600080fd5b806000808473ffffffffffffffffffffffffffffffffffffffff1673ffffffffffffffffffffffffffffffffffffffff168152602001908152602001600020600401819055505050565b600381815481101515610dcd57fe5b906000526020600020016000915090508054600181600116156101000203166002900480601f016020809104026020016040519081016040528092919081815260200182805460018160011615610100020316600290048015610e715780601f10610e4657610100808354040283529160200191610e71565b820191906000526020600020905b815481529060010190602001808311610e5457829003601f168201915b505050505081565b60008060008773ffffffffffffffffffffffffffffffffffffffff1673ffffffffffffffffffffffffffffffffffffffff1681526020019081526020016000206004015414151515610eca57600080fd5b610f1e846000808873ffffffffffffffffffffffffffffffffffffffff1673ffffffffffffffffffffffffffffffffffffffff168152602001908152602001600020600101546126e190919063ffffffff16565b6000808773ffffffffffffffffffffffffffffffffffffffff1673ffffffffffffffffffffffffffffffffffffffff16815260200190815260200160002060010181905550610fb860016000808873ffffffffffffffffffffffffffffffffffffffff1673ffffffffffffffffffffffffffffffffffffffff168152602001908152602001600020600301546126e190919063ffffffff16565b6000808773ffffffffffffffffffffffffffffffffffffffff1673ffffffffffffffffffffffffffffffffffffffff16815260200190815260200160002060030181905550811561113a57611057836000808873ffffffffffffffffffffffffffffffffffffffff1673ffffffffffffffffffffffffffffffffffffffff168152602001908152602001600020600201546126e190919063ffffffff16565b6000808773ffffffffffffffffffffffffffffffffffffffff1673ffffffffffffffffffffffffffffffffffffffff168152602001908152602001600020600201819055506110f0816000808873ffffffffffffffffffffffffffffffffffffffff1673ffffffffffffffffffffffffffffffffffffffff168152602001908152602001600020600401546126e190919063ffffffff16565b6000808773ffffffffffffffffffffffffffffffffffffffff1673ffffffffffffffffffffffffffffffffffffffff168152602001908152602001600020600401819055506111d4565b61118e816000808873ffffffffffffffffffffffffffffffffffffffff1673ffffffffffffffffffffffffffffffffffffffff1681526020019081526020016000206004015461269790919063ffffffff16565b6000808773ffffffffffffffffffffffffffffffffffffffff1673ffffffffffffffffffffffffffffffffffffffff168152602001908152602001600020600401819055505b7f73e8a609bf3c3cc3efd35793e7dfc1c6bdb0a27df03cc1781240b6d949b3286b6000808773ffffffffffffffffffffffffffffffffffffffff1673ffffffffffffffffffffffffffffffffffffffff1681526020019081526020016000206000016000808873ffffffffffffffffffffffffffffffffffffffff1673ffffffffffffffffffffffffffffffffffffffff168152602001908152602001600020600101546000808973ffffffffffffffffffffffffffffffffffffffff1673ffffffffffffffffffffffffffffffffffffffff168152602001908152602001600020600201546000808a73ffffffffffffffffffffffffffffffffffffffff1673ffffffffffffffffffffffffffffffffffffffff168152602001908152602001600020600301546000808b73ffffffffffffffffffffffffffffffffffffffff1673ffffffffffffffffffffffffffffffffffffffff1681526020019081526020016000206004015460405180806020018681526020018581526020018481526020018381526020018281038252878181546001816001161561010002031660029004815260200191508054600181600116156101000203166002900480156113df5780601f106113b4576101008083540402835291602001916113df565b820191906000526020600020905b8154815290600101906020018083116113c257829003601f168201915b5050965050505050505060405180910390a15050505050565b60006001905060008090505b60038054905081101561152f5760038181548110151561142057fe5b9060005260206000200160405160200180828054600181600116156101000203166002900480156114885780601f10611466576101008083540402835291820191611488565b820191906000526020600020905b815481529060010190602001808311611474575b505091505060405160208183030381529060405280519060200120846040516020018082805190602001908083835b6020831015156114dc57805182526020820191506020810190506020830392506114b7565b6001836020036101000a03801982511681845116808217855250505050505090500191505060405160208183030381529060405280519060200120141561152257600091505b8080600101915050611404565b506001151581151514151561154357600080fd5b600080905060008090505b83518110156115d1576115c2600080868481518110151561156b57fe5b9060200190602002015173ffffffffffffffffffffffffffffffffffffffff1673ffffffffffffffffffffffffffffffffffffffff16815260200190815260200160002060040154836126e190919063ffffffff16565b9150808060010191505061154e565b506115e683518261276b90919063ffffffff16565b90506000600160038690806001815401808255809150509060018203906000526020600020016000909192909190915090805190602001906116299291906129b5565b5003905060e0604051908101604052808681526020018581526020018551815260200160008152602001600081526020016000815260200183815250600260008381526020019081526020016000206000820151816000019080519060200190611694929190612a35565b5060208201518160010190805190602001906116b1929190612ab5565b5060408201518160020155606082015181600301556080820151816004015560a0820151816005015560c082015181600601559050507ff40914f55ad0708a080b700ef4d7e24b6571a7821a0faf4eaa37f7e2687aadc185858385604051808060200180602001858152602001848152602001838103835287818151815260200191508051906020019080838360005b8381101561175c578082015181840152602081019050611741565b50505050905090810190601f1680156117895780820380516001836020036101000a031916815260200191505b50838103825286818151815260200191508051906020019060200280838360005b838110156117c55780820151818401526020810190506117aa565b50505050905001965050505050505060405180910390a15050505050565b6001818154811015156117f257fe5b906000526020600020016000915054906101000a900473ffffffffffffffffffffffffffffffffffffffff1681565b60008060008373ffffffffffffffffffffffffffffffffffffffff1673ffffffffffffffffffffffffffffffffffffffff16815260200190815260200160002060000180546001816001161561010002031660029004905014151561188557600080fd5b60a0604051908101604052808381526020016000815260200160008152602001600081526020016106408152506000808373ffffffffffffffffffffffffffffffffffffffff1673ffffffffffffffffffffffffffffffffffffffff168152602001908152602001600020600082015181600001908051906020019061190c929190612a35565b506020820151816001015560408201518160020155606082015181600301556080820151816004015590505060018190806001815401808255809150509060018203906000526020600020016000909192909190916101000a81548173ffffffffffffffffffffffffffffffffffffffff021916908373ffffffffffffffffffffffffffffffffffffffff160217905550507f80c5ac2d493a75b4aa3a7daf23df121e9b498fbe5d1b002253b492868456490f828260405180806020018373ffffffffffffffffffffffffffffffffffffffff1673ffffffffffffffffffffffffffffffffffffffff168152602001828103825284818151815260200191508051906020019080838360005b83811015611a33578082015181840152602081019050611a18565b50505050905090810190601f168015611a605780820380516001836020036101000a031916815260200191505b50935050505060405180910390a15050565b6000600260008781526020019081526020016000206006015414151515611a9857600080fd5b611ac18460026000888152602001908152602001600020600301546126e190919063ffffffff16565b6002600087815260200190815260200160002060030181905550611b048360026000888152602001908152602001600020600401546126e190919063ffffffff16565b60026000878152602001908152602001600020600401819055508115611baf57611b4d8360026000888152602001908152602001600020600401546126e190919063ffffffff16565b6002600087815260200190815260200160002060040181905550611b908160026000888152602001908152602001600020600601546126e190919063ffffffff16565b6002600087815260200190815260200160002060060181905550611bf3565b611bd881600260008881526020019081526020016000206006015461269790919063ffffffff16565b60026000878152602001908152602001600020600601819055505b611c1d600160026000888152602001908152602001600020600501546126e190919063ffffffff16565b60026000878152602001908152602001600020600501819055507f0ffde81b4ee0cadc8d310d844bdbb4ebb598abe8a1bcce401931ed558ddfec4960026000878152602001908152602001600020600001866002600089815260200190815260200160002060030154600260008a815260200190815260200160002060040154600260008b815260200190815260200160002060050154600260008c8152602001908152602001600020600601546040518080602001878152602001868152602001858152602001848152602001838152602001828103825288818154600181600116156101000203166002900481526020019150805460018160011615610100020316600290048015611d725780601f10611d4757610100808354040283529160200191611d72565b820191906000526020600020905b815481529060010190602001808311611d5557829003601f168201915b505097505050505050505060405180910390a15050505050565b60606000806000806000808773ffffffffffffffffffffffffffffffffffffffff1673ffffffffffffffffffffffffffffffffffffffff1681526020019081526020016000206000016000808873ffffffffffffffffffffffffffffffffffffffff1673ffffffffffffffffffffffffffffffffffffffff168152602001908152602001600020600101546000808973ffffffffffffffffffffffffffffffffffffffff1673ffffffffffffffffffffffffffffffffffffffff168152602001908152602001600020600201546000808a73ffffffffffffffffffffffffffffffffffffffff1673ffffffffffffffffffffffffffffffffffffffff168152602001908152602001600020600301546000808b73ffffffffffffffffffffffffffffffffffffffff1673ffffffffffffffffffffffffffffffffffffffff16815260200190815260200160002060040154848054600181600116156101000203166002900480601f016020809104026020016040519081016040528092919081815260200182805460018160011615610100020316600290048015611f725780601f10611f4757610100808354040283529160200191611f72565b820191906000526020600020905b815481529060010190602001808311611f5557829003601f168201915b505050505094509450945094509450945091939590929450565b606080600080600080600060026000898152602001908152602001600020600001600260008a8152602001908152602001600020600101600260008b815260200190815260200160002060020154600260008c815260200190815260200160002060030154600260008d815260200190815260200160002060040154600260008e815260200190815260200160002060050154600260008f815260200190815260200160002060060154868054600181600116156101000203166002900480601f0160208091040260200160405190810160405280929190818152602001828054600181600116156101000203166002900480156120cb5780601f106120a0576101008083540402835291602001916120cb565b820191906000526020600020905b8154815290600101906020018083116120ae57829003601f168201915b505050505096508580548060200260200160405190810160405280929190818152602001828054801561215357602002820191906000526020600020905b8160009054906101000a900473ffffffffffffffffffffffffffffffffffffffff1673ffffffffffffffffffffffffffffffffffffffff1681526020019060010190808311612109575b505050505095509650965096509650965096509650919395979092949650565b600060026000838152602001908152602001600020600601541415151561219957600080fd5b6060600260008381526020019081526020016000206000018054600181600116156101000203166002900480601f0160208091040260200160405190810160405280929190818152602001828054600181600116156101000203166002900480156122455780601f1061221a57610100808354040283529160200191612245565b820191906000526020600020905b81548152906001019060200180831161222857829003601f168201915b5050505050905060026000838152602001908152602001600020600080820160006122709190612941565b6001820160006122809190612b3f565b60028201600090556003820160009055600482016000905560058201600090556006820160009055505060008090505b6003805490508110156124c757816040516020018082805190602001908083835b6020831015156122f657805182526020820191506020810190506020830392506122d1565b6001836020036101000a0380198251168184511680821785525050505050509050019150506040516020818303038152906040528051906020012060038281548110151561234057fe5b9060005260206000200160405160200180828054600181600116156101000203166002900480156123a85780601f106123865761010080835404028352918201916123a8565b820191906000526020600020905b815481529060010190602001808311612394575b50509150506040516020818303038152906040528051906020012014156124ba576003818154811015156123d857fe5b9060005260206000200160006123ee9190612941565b612407600160038054905061269790919063ffffffff16565b6003816124149190612b60565b507f9343002b8b2fcab5cab87a58c6071a7186b3f3cf663c10b1f024c7c3cc52c53582846040518080602001838152602001828103825284818151815260200191508051906020019080838360005b8381101561247e578082015181840152602081019050612463565b50505050905090810190601f1680156124ab5780820380516001836020036101000a031916815260200191505b50935050505060405180910390a15b80806001019150506122b0565b505050565b60006002600083815260200190815260200160002060060154141515156124f257600080fd5b6000600260008381526020019081526020016000206003018190555060006002600083815260200190815260200160002060040181905550600060026000838152602001908152602001600020600501819055507ffd3bb5f4abc59b9e8f3becc476d5fcb81deb645956c4f9a7b77524e74876ad426002600083815260200190815260200160002060000182600260008581526020019081526020016000206003015460026000868152602001908152602001600020600401546002600087815260200190815260200160002060050154600260008881526020019081526020016000206006015460405180806020018781526020018681526020018581526020018481526020018381526020018281038252888181546001816001161561010002031660029004815260200191508054600181600116156101000203166002900480156126815780601f1061265657610100808354040283529160200191612681565b820191906000526020600020905b81548152906001019060200180831161266457829003601f168201915b505097505050505050505060405180910390a150565b60006126d983836040805190810160405280601e81526020017f536166654d6174683a207375627472616374696f6e206f766572666c6f7700008152506127b5565b905092915050565b6000808284019050838110151515612761576040517f08c379a000000000000000000000000000000000000000000000000000000000815260040180806020018281038252601b8152602001807f536166654d6174683a206164646974696f6e206f766572666c6f77000000000081525060200191505060405180910390fd5b8091505092915050565b60006127ad83836040805190810160405280601a81526020017f536166654d6174683a206469766973696f6e206279207a65726f000000000000815250612877565b905092915050565b60008383111582901515612864576040517f08c379a00000000000000000000000000000000000000000000000000000000081526004018080602001828103825283818151815260200191508051906020019080838360005b8381101561282957808201518184015260208101905061280e565b50505050905090810190601f1680156128565780820380516001836020036101000a031916815260200191505b509250505060405180910390fd5b5060008385039050809150509392505050565b600080831182901515612925576040517f08c379a00000000000000000000000000000000000000000000000000000000081526004018080602001828103825283818151815260200191508051906020019080838360005b838110156128ea5780820151818401526020810190506128cf565b50505050905090810190601f1680156129175780820380516001836020036101000a031916815260200191505b509250505060405180910390fd5b506000838581151561293357fe5b049050809150509392505050565b50805460018160011615610100020316600290046000825580601f106129675750612986565b601f0160209004906000526020600020908101906129859190612b8c565b5b50565b8154818355818111156129b0578183600052602060002091820191016129af9190612b8c565b5b505050565b828054600181600116156101000203166002900490600052602060002090601f016020900481019282601f106129f657805160ff1916838001178555612a24565b82800160010185558215612a24579182015b82811115612a23578251825591602001919060010190612a08565b5b509050612a319190612b8c565b5090565b828054600181600116156101000203166002900490600052602060002090601f016020900481019282601f10612a7657805160ff1916838001178555612aa4565b82800160010185558215612aa4579182015b82811115612aa3578251825591602001919060010190612a88565b5b509050612ab19190612b8c565b5090565b828054828255906000526020600020908101928215612b2e579160200282015b82811115612b2d5782518260006101000a81548173ffffffffffffffffffffffffffffffffffffffff021916908373ffffffffffffffffffffffffffffffffffffffff16021790555091602001919060010190612ad5565b5b509050612b3b9190612bb1565b5090565b5080546000825590600052602060002090810190612b5d9190612b8c565b50565b815481835581811115612b8757818360005260206000209182019101612b869190612bf4565b5b505050565b612bae91905b80821115612baa576000816000905550600101612b92565b5090565b90565b612bf191905b80821115612bed57600081816101000a81549073ffffffffffffffffffffffffffffffffffffffff021916905550600101612bb7565b5090565b90565b612c1d91905b80821115612c195760008181612c109190612941565b50600101612bfa565b5090565b9056fea165627a7a723058206abd66277b4957d05a121cc96570cc3c821a27d884b141e40ade023f8b3aaaee0029",
  "source": "//TO DO:\n//Choose visibility and permissions for EVERYTHING\n\npragma solidity ^0.5.0;\nimport \"./SafeMath.sol\";\nimport \"./Players.sol\";\n\ncontract Teams is Players {\n\n\t//SafeMath functions for uint256 typ\n\tusing SafeMath for uint256;\n\n\t//Team object\n\tstruct Team {\n\t\tstring teamName;\n\t\taddress[] teamPlayers;\n\t\tuint256 teamSize;\n\t\tuint256 totalWagered;\n\t\tuint256 totalWon;\n\t\tuint256 totalPlayed;\n\t\tuint256 eloRating;\n\t}\n\n\tevent teamCreated(string _teamName, address[] _teamPlayers, uint256 _id, uint256 _eloRating);\n\tevent teamDeleted(string _teamName, uint256 _id);\n    event teamUpdated(string _teamName, uint256 _id, uint256 _totalWagered, uint256 _totalWon, uint256 _totalPlayed, uint256 _eloRating);\n    event teamStatsReset(string _teamName, uint256 _id, uint256 _totalWagered, uint256 _totalWon, uint256 _totalPlayed, uint256 _eloRating);\n\n\t//Maps ids to Team objects\n\tmapping(uint256 => Team) teams;\n\t//Array of names\n\tstring[] public teamNames;\n\n\t//Require team name to be unique then can index by team name or hashed team name cast to unt256\n\tfunction createTeam(string memory _teamName, address[] memory _teamPlayers) public {\n\t\tbool uniqueName = true;\n\t\tfor (uint256 i = 0; i < teamNames.length; i++) {\n\t\t\tif (keccak256(abi.encodePacked((_teamName))) == keccak256(abi.encodePacked((teamNames[i])))) {\n\t\t\t\tuniqueName = false;\n\t\t\t}\n\t\t}\n\t\trequire(uniqueName == true);\n\t\tuint256 _eloRating = 0;\n\t\tfor (uint256 i = 0; i < _teamPlayers.length; i++) {\n\t\t\t_eloRating = _eloRating.add(players[_teamPlayers[i]].eloRating);\n\t\t}\n\t\t_eloRating = _eloRating.div(_teamPlayers.length);\n        uint256 id = teamNames.push(_teamName) - 1;\n        teams[id] = Team(_teamName, _teamPlayers, _teamPlayers.length, 0, 0, 0, _eloRating);\n        emit teamCreated(_teamName, _teamPlayers, id, _eloRating);\n\t}\n\n\t//Returns team object elements from team id\n\tfunction getTeamById(uint256 _id) public view returns (string memory, address[] memory, uint256, uint256, uint256, uint256, uint256) {\n\t\treturn(teams[_id].teamName, teams[_id].teamPlayers, teams[_id].teamSize, teams[_id].totalWagered, teams[_id].totalWon, teams[_id].totalPlayed, teams[_id].eloRating);\n\t}\n\n\t//Deletes team from mapping and teamName array \n\tfunction deleteTeam(uint256 _id) public {\n\t\trequire(teams[_id].eloRating != 0);\n\t\tstring memory deletingTeamName = teams[_id].teamName;\n\t\tdelete teams[_id];\n\t\tfor (uint256 i = 0; i < teamNames.length; i++) {\n\t\t\tif (keccak256(abi.encodePacked(teamNames[i])) == keccak256(abi.encodePacked(deletingTeamName))) {\n\t\t\t\tdelete teamNames[i];\n\t\t\t\tteamNames.length = teamNames.length.sub(1);\n\t\t\t\temit teamDeleted(deletingTeamName, _id);\n\t\t\t}\n\t\t}\n\t}\n\n\t//Updates team's elements depending on outcome of game - NOTE: Does not update totalPlayed.\n\tfunction updateTeam(uint256 _id, uint256 _amountWagered, uint256 _amountWon, bool _won, uint256 _eloChange) public {\n\t\trequire(teams[_id].eloRating != 0);\n\t\tteams[_id].totalWagered = teams[_id].totalWagered.add(_amountWagered);\n\t\tteams[_id].totalWon = teams[_id].totalWon.add(_amountWon);\n\t\tif (_won) {\n            teams[_id].totalWon = teams[_id].totalWon.add(_amountWon);\n            teams[_id].eloRating = teams[_id].eloRating.add(_eloChange);\n        } else {\n            teams[_id].eloRating = teams[_id].eloRating.sub(_eloChange);\n        }\n        teams[_id].totalPlayed = teams[_id].totalPlayed.add(1);\n        emit teamUpdated(teams[_id].teamName, _id, teams[_id].totalWagered, teams[_id].totalWon, teams[_id].totalPlayed, teams[_id].eloRating);\n\t}\n\n\t//Resets a team's statistics\n\tfunction resetTeamStats(uint256 _id) public {\n\t\trequire(teams[_id].eloRating != 0);\n\t\tteams[_id].totalWagered = 0;\n\t\tteams[_id].totalWon = 0;\n\t\tteams[_id].totalPlayed = 0;\n\t\temit teamStatsReset(teams[_id].teamName, _id, teams[_id].totalWagered, teams[_id].totalWon, teams[_id].totalPlayed, teams[_id].eloRating);\n\t}\n\n}",
  "sourcePath": "/Users/jordanrowley/Desktop/ /ContractTesting/contracts/Teams.sol",
  "compiler": {
    "name": "solc",
    "version": "0.5.0+commit.1d4f565a.Emscripten.clang"
  },
  "schemaVersion": "3.0.1",
  "updatedAt": "2020-10-22T23:41:57.718Z",
  "devdoc": {
    "methods": {}
  },
  "userdoc": {
    "methods": {}
  }
}